:020000040800F2
:1000000080090020010100080D200008C51C00081F
:10001000092000084D0200088126000800000000A9
:100020000000000000000000000000007520000833
:10003000AD020008000000004920000877200008F9
:100040001B0100081B0100081B0100081B01000820
:100050001B0100081B0100081B0100081B01000810
:100060001B0100081B0100081B0100081B01000800
:100070001B0100085102000861020008710200081B
:100080001B0100081B0100081B0100081B010008E0
:100090001B0100081B0100081B0100081B010008D0
:1000A0001B0100083D2100081B0100081B0100087E
:1000B0004D2100085D2100086D2100081B0100088A
:1000C0001B0100081B0100081B0100081B010008A0
:1000D0001B010008712600081B0100081B01000815
:1000E0001B0100081B0100081B010008DFF80CD0F1
:1000F00000F09AF800480047B9280008800900205D
:100100000648804706480047FEE7FEE7FEE7FEE7B1
:10011000FEE7FEE7FEE7FEE7FEE7FEE7E520000874
:10012000ED000008D2B201E000F8012B491EFBD21D
:1001300070470022F6E710B513460A4604461946F2
:10014000FFF7F0FF204610BD421C10F8011B0029EC
:10015000FBD1801A704710B5002200E0521C835C6E
:100160008C5CA34201D1002BF8D1D8B2E1B2401A85
:1001700010BDC10F80EAE0700844CA079623002131
:1001800000F023B896230022114600F01EB80000AC
:10019000002801DBC0F10040002901DBC1F1004172
:1001A00081427047002801DBC0F10040002901DBDB
:1001B000C1F10041884270470029A8BF7047401C28
:1001C000490008BF20F00100704710B4B0FA80FC6D
:1001D00000FA0CF050EA010404BF10BC704749B1AA
:1001E000CCF1200421FA04F411FA0CF118BF01211A
:1001F00021430843A3EB0C01CB1D4FEA00614FEAFA
:10020000102042BF002010BC704700EBC3501044C8
:100210000029A4BF10BC7047401C490008BF20F053
:10022000010010BC70470000064C074D06E0E06876
:1002300040F0010394E8070098471034AC42F6D32D
:10024000FFF758FF202E0008402E000800BFFEE7F1
:1002500010B5024800F084F810BD0000140400201E
:1002600010B5024800F07CF810BD0000DC0400204E
:1002700010B5024800F074F810BD0000980400208A
:1002800030B590F840500124AC40C56B6C600468F8
:1002900063604468102C04D10468A2600468E160C3
:1002A00003E00468A1600468E26030BD70477047F5
:1002B00070B50446002594F82100022803D00420DC
:1002C000A063012548E02068006820F00E00216846
:1002D00008602068006820F00100216808601F495C
:1002E0002068884201D1012026E01C491431206891
:1002F000884201D110201FE0184928312068884227
:1003000001D1801518E015493C312068884201D19F
:10031000801411E0114950312068884202D14FF415
:10032000803009E00D4964312068884202D14FF4E1
:10033000801001E04FF080700849083948600120C2
:1003400084F8210000BF002084F8200000BF606B0B
:1003500010B12046616B8847284670BD08000240F6
:1003600070B50446E06B05682068066894F8401094
:10037000042088402840002846D006F004000028C9
:1003800042D02068006800F0200028B9206800688A
:1003900020F004002168086057492068884201D194
:1003A000042027E0544914312068884201D14020BC
:1003B00020E0514928312068884201D1001519E018
:1003C0004D493C312068884202D14FF4804011E011
:1003D000494950312068884202D14FF4802009E019
:1003E000454964312068884202D14FF4800001E021
:1003F0004FF08060404908394860E06A00287AD0B0
:100400002046E16A884776E094F840100220884050
:100410002840A0B306F0020088B32068006800F00E
:10042000200040B92068006820F00A0021680860B8
:10043000012084F8210030492068884201D102203F
:1004400028E02D4914312068884201D1202021E084
:10045000294928312068884201D140151AE02649EF
:100460003C312068884202D14FF4005012E022490A
:1004700050312068884203D14FF400300AE017E081
:100480001D4964312068884202D14FF4001001E018
:100490004FF0007018490839486000BF002084F808
:1004A000200000BFA06A30B32046A16A884722E03E
:1004B00094F84010082088402840E0B106F0080079
:1004C000C8B12068006820F00E002168086094F828
:1004D000401001208840E16B48600120A06384F84F
:1004E000210000BF002084F8200000BF206B10B165
:1004F0002046216B884770BD08000240014600225B
:1005000009B901207047164B0868C01A1423B0FBC4
:10051000F3F08000086412480838C863022081F8AC
:1005200021000868026843F6F0708243D1E90103B4
:100530001843CB6818430B6918434B6918438B6900
:100540001843CB691843024308680260002088639F
:10055000012081F82100002081F8200000BFD1E7B0
:10056000080002402DE9F04104460D4616461F469C
:100570004FF0000800BF94F82000012802D10220AB
:10058000BDE8F081012084F8200000BF94F821002C
:1005900001282CD1022084F821000020A0632068CB
:1005A000006820F00100216808603B463246294679
:1005B0002046FFF765FEE06A30B12068006840F031
:1005C0000E00216808600BE02068006820F004003D
:1005D000216808602068006840F00A00216808600F
:1005E0002068006840F001002168086006E000BF54
:1005F000002084F8200000BF4FF002084046BFE70B
:1006000070B5044600F0ACF906462546681C10B1EA
:1006100004480078054400BF00F0A2F9801BA842FE
:10062000FAD370BD100000202DE9F84703460024DE
:10063000002000258446002700226EE14FF00108CB
:1006400008FA02F4D1F8008008EA0400A0427DD143
:10065000DFF8D0A2D1F80480A8EB0A09D0453AD03F
:1006600014DCB8F1030F50D009DCB8F1000F31D021
:10067000B8F1010F1CD0B8F1020F49D120E0B8F158
:10068000110F18D0B8F1120F42D11EE0B9F5881F32
:1006900025D006DCB9F5803F20D0B9F5801F37D1D1
:1006A0001AE0B9F5001F18D0B9F5041F30D117E0D2
:1006B000D1F80CC02DE0D1F80C8008F1040C28E032
:1006C000D1F80C8008F1080C23E0D1F80C8008F177
:1006D0000C0C1EE000BF00BF00BF00BF00BF00BF8A
:1006E000D1F80880B8F1000F02D14FF0040C0BE0F4
:1006F000D1F80880B8F1010F03D14FF0080C1C614C
:1007000002E04FF0080C5C6103E04FF0000C00E0E9
:1007100000BF00BFFF2801D8984601E003F104089C
:100720004646FF2802D84FEA820803E0A2F10808F3
:100730004FEA88084746D6F800804FF00F0909FABB
:1007400007F928EA09080CFA07F900E088E048EA06
:100750000908C6F80080D1F8048008F08058B8F184
:10076000805F7DD100BFDFF8C081D8F8188048F0E5
:100770000108DFF8B491C9F81880C846D8F8188085
:1007800008F00108CDF8008000BF00BF4FEAB9387B
:100790004FEA920958F829504FEA82784FEA1879BF
:1007A0004FF00F0808FA09F825EA0805DFF87C8100
:1007B000434502D14FF0000816E0DFF8748143454D
:1007C00002D14FF001080FE0DFF86881434502D104
:1007D0004FF0020808E0DFF86081434502D14FF096
:1007E000030801E04FF004084FEA82794FEA1979D3
:1007F00008FA09F848EA0505DFF840814FEA92094E
:1008000048F82950D1F8048008F48038B8F5803FC2
:100810000AD1DFF82C81D8F8008048EA0008DFF818
:100820002091C9F8008009E0DFF81481D8F8008031
:1008300028EA0008DFF80891C9F80080D1F80480A0
:1008400008F40038B8F5003F10D1DFF8F48008F163
:100850000408D8F8008048EA0008DFF8E49000E0D7
:100860005AE009F10409C9F800800DE0DFF8D080F2
:1008700008F10408D8F8008028EA0008DFF8C090E2
:1008800009F10409C9F80080D1F8048008F480183F
:10089000B8F5801F0ED1DFF8A88008F10808D8F855
:1008A000008048EA0008DFF8989009F10809C9F8C3
:1008B00000800DE0DFF8888008F10808D8F8008093
:1008C00028EA0008DFF8789009F10809C9F80080E3
:1008D000D1F8048008F40018B8F5001F0ED1DFF835
:1008E000608008F10C08D8F8008048EA0008DFF8BA
:1008F000509009F10C09C9F800800DE0DFF8408044
:1009000008F10C08D8F8008028EA0008DFF83090D9
:1009100009F10C09C9F80080521C102AFFF48EAEB0
:10092000BDE8F887000011100010024000080140E7
:10093000000C01400010014000140140080001407B
:1009400000040140024693680B400BB1012000E017
:10095000002070470AB1016101E00B040361704798
:100960000148006870470000080000200348006844
:1009700003490978084401490860704708000020CD
:100980001000002010B50848006840F0100006492B
:100990000860032000F0A6F8002000F007F800F03F
:1009A0002BF8002010BD00000020024070B5044666
:1009B0000E4800784FF47A71B1FBF0F00C490968E9
:1009C000B1FBF0F5284600F019FC08B1012070BD1C
:1009D000102C07D200222146501E00F044F8054892
:1009E000046001E00120F2E70020F0E710000020A1
:1009F000140000200C00002008B500BF11488069D9
:100A000040F001000F4988610846806900F001004C
:100A1000009000BF00BF00BF0846C06940F0805092
:100A2000C8610846C06900F08050009000BF00BF58
:100A300000BF0549486820F0E06040F00070486061
:100A400000BF08BD001002400000014000BF00F0E0
:100A50001F02012191404209920002F1E022C2F8F6
:100A6000001100BF70472DE9F05F80460D46164625
:100A7000002701F0CDFA074639462A46334601F0F1
:100A80000700C0F1070ABAF1040F02D94FF0040AB7
:100A900001E0C0F1070AD14600F1040ABAF1070FDC
:100AA00002D24FF0000A01E0A0F1030AD4464FF051
:100AB000010A0AFA09FAAAF1010A0AEA020A0AFA7A
:100AC0000CFA4FF0010B0BFA0CFBABF1010B0BEA2C
:100AD000030B4AEA0B042146404601F0A1FABDE8A7
:100AE000F09F000000BF00F00702064B19684FF6A8
:100AF000FF031940044B0B4343EA0221014B1960E9
:100B000000BF70470CED00E00000FA0570B5044628
:100B10000D4600266D48006800F00700A8420ED27E
:100B20006A48006820F007002843684908600846C2
:100B3000006800F00700A84201D0012070BD2078B5
:100B400000F0020002281DD1207800F004000428E3
:100B500005D15F48406840F4E0605D494860207816
:100B600000F00800082805D15948406840F460505A
:100B7000574948605648406820F0F000A168084393
:100B800053494860207800F0010000285DD060687B
:100B9000012806D14E48006800F4003090B90120C9
:100BA000CCE76068022806D14948006800F0007070
:100BB00040B90120C2E74648006800F0020008B9C9
:100BC0000120BBE74248406820F003006168084309
:100BD0003F494860FFF7C4FE06466068012810D10F
:100BE00008E0FFF7BDFE801B41F28831884201D941
:100BF0000320A3E73648406800F00C000428F0D139
:100C000023E06068022810D108E0FFF7A9FE801BEE
:100C100041F28831884201D903208FE72C4840688F
:100C200000F00C000828F0D10FE008E0FFF798FE74
:100C3000801B41F28831884201D903207EE7244895
:100C4000406800F00C000028F0D12048006800F057
:100C50000700A8420ED91D48006820F0070028436D
:100C60001A4908600846006800F00700A84201D051
:100C7000012063E7207800F00400042807D114481D
:100C8000406820F4E060E16808431149486020783A
:100C900000F00800082808D10D48406820F4605092
:100CA000216940EAC1000A49486000F03DF808495E
:100CB0004968C1F30311074A515CC84006490860FE
:100CC0000020FFF773FE002038E7000000200240FC
:100CD00000100240B42D00081400002001480068F4
:100CE000704700001400002000B5FFF7F7FF04492B
:100CF0004968C1F30221034A515CC84000BD0000AD
:100D000000100240C42D000800B5FFF7E7FF0449BA
:100D10004968C1F3C221034A515CC84000BD0000CC
:100D200000100240C42D0008F0B585B00FF26C0C25
:100D30009CE8E01001A8A0E8E0101CA52D68009533
:100D400000210022002300240020194D696801F0D1
:100D50000C05F5B1042D02D0082D19D101E015487C
:100D600019E001ADC1F38346AC5D01F4803555B1A6
:100D70000F4D6D68C5F340451DF805200D4D6543C9
:100D8000B5FBF2F302E00C4D04FB05F3184602E05C
:100D900000BF084800BF00BF05B0F0BD0203040556
:100DA000060708090A0B0C0D0E0F101001020000B7
:100DB0000010024000127A0000093D00F8B5044618
:100DC0000025207800F00100002878D0F84840681D
:100DD00000F00C0004280CD0F548406800F00C002E
:100DE000082811D1F248406800F48030B0F5803F07
:100DF0000AD1EF48006800F4003000285FD0606836
:100E000000285CD10120F8BD00BF6068B0F5803FCC
:100E100006D1E748006840F48030E549086028E0E2
:100E2000606858B9E248006820F48030E049086002
:100E30000846006820F4802008601AE06068B0F579
:100E4000A02F0BD1DA48006840F48020D849086010
:100E50000846006840F4803008600AE0D448006822
:100E600020F48030D24908600846006820F48020D1
:100E7000086000BF606888B1FFF772FD054606E0B4
:100E8000FFF76EFD401B642801D90320BBE7C8486B
:100E9000006800F400300028F2D010E0FFF760FD99
:100EA000054606E0FFF75CFD401B642801D90320DE
:100EB000A9E7BF48006800F400300028F2D120788C
:100EC00000F00200022857D1B948406800F00C0039
:100ED00050B1B748406800F00C00082818D1B44859
:100EE000406800F4803098B9B148006800F0020012
:100EF00020B12069012801D0012084E7AC480068B6
:100F000020F0F800616940EAC100A949086033E0B7
:100F10002069E8B10120A7490860FFF721FD0546D7
:100F200006E0FFF71DFD401B022801D903206AE7F8
:100F30009F48006800F002000028F2D09C4800683A
:100F400020F0F800616940EAC1009949086013E0A7
:100F5000002098490860FFF703FD054606E0FFF70B
:100F6000FFFC401B022801D903204CE79048006891
:100F700000F002000028F2D1207800F008000828D4
:100F80002DD1A069B8B101208B490860FFF7E8FCBA
:100F9000054606E0FFF7E4FC401B022801D90320C8
:100FA00031E78348406A00F002000028F2D00120B7
:100FB00001F04CF813E000207F490860FFF7D0FCF7
:100FC000054606E0FFF7CCFC401B022801D90320B0
:100FD00019E77748406A00F002000028F2D1207833
:100FE00000F00400042873D100267148C06900F0A5
:100FF000805070B900BF6E48C06940F080506C49A5
:10100000C8610846C06900F08050009000BF00BF72
:1010100001266A48006800F48070B0B9674800682B
:1010200040F4807065490860FFF79AFC054606E0C9
:10103000FFF796FC401B642801D90320E3E65F48D4
:10104000006800F480700028F2D000BFE06801283A
:1010500006D15748006A40F001005549086227E070
:10106000E06858B95248006A20F00100504908620F
:101070000846006A20F00400086219E0E0680528CC
:101080000BD14B48006A40F0040049490862084609
:10109000006A40F0010008620AE04548006A20F05A
:1010A0000100434908620846006A20F00400086213
:1010B00000BFE068A0B1FFF753FC054609E0FFF769
:1010C0004FFC401B41F28831884202D903209AE646
:1010D00022E03748006A00F002000028EFD012E05A
:1010E000FFF73EFC054608E0FFF73AFC401B41F2E3
:1010F0008831884201D9032085E62D48006A00F036
:1011000002000028F0D1012E05D12948C06920F045
:1011100080502749C86100BFE069C8B324484068CF
:1011200000F00C00082860D0E069022848D10020B7
:1011300020490866FFF714FC054606E0FFF710FC9F
:10114000401B022801D903205DE61948006800F021
:1011500000700028F2D1206AB0F5803F07D1144812
:10116000406820F40030A168084311494860D4E980
:10117000080108430E49496821F4741108430C49D9
:10118000486001200B490866FFF7EAFB054607E0C7
:101190002DE0FFF7E5FB401B022801D9032032E6D2
:1011A0000348006800F000700028F2D01FE0000043
:1011B00000100240000042428004424200700040A1
:1011C00000200C490866FFF7CBFB054606E0FFF759
:1011D000C7FB401B022801D9032014E6064800681B
:1011E00000F000700028F2D101E001200BE60020A1
:1011F00009E60000000042420010024070B50446BB
:101200002546681EB0F1807F01D301200FE0681EE3
:101210004FF0E02148610F214FF0FF3000F000FF58
:1012200000204FF0E021886107200861002070BD98
:1012300070477047024600BF92F83C00012801D178
:1012400002207047012082F83C0000BF022082F893
:101250003D001068406820F0700013685860106806
:1012600040680B681843136858601068806820F065
:10127000800013689860106880684B681843136892
:101280009860012082F83D0000BF002082F83C00F9
:1012900000BF00BFD5E710B504460CB9012010BD52
:1012A00094F83D0028B9002084F83C00204600F066
:1012B0000DF8022084F83D00211D206800F05EFF3B
:1012C000012084F83D000020E9E7000038B504461D
:1012D00028492068884216D100BF2748806940F419
:1012E0000060254988610846806900F4006000902C
:1012F00000BF00BF002211461920FFF7B4FB1920E0
:10130000FFF7A4FB34E02068B0F1804F16D100BF96
:101310001948C06940F001001749C8610846C06912
:1013200000F00100009000BF00BF002211461C2009
:10133000FFF799FB1C20FFF789FB19E00F49206894
:10134000884215D100BF0C48C06940F004000A492A
:10135000C8610846C06900F00400009000BF00BFEB
:10136000002211461E20FFF77EFB1E20FFF76EFBBA
:1013700038BD0000002C0140001002400008004071
:1013800001460868C06840F001000A68D06008683B
:10139000006840F001000A681060002070472DE9E5
:1013A000F04104460D46002600BF94F83C00012899
:1013B00002D10220BDE8F081012084F83C0000BF8A
:1013C000022084F83D002068866826F0770626F41F
:1013D0007F4620688660286850283BD00CDC202897
:1013E00060D004DC002853D0102865D155E03028A7
:1013F0005DD0402860D141E0602835D070280DD004
:10140000B0F5805F03D0B0F5005F55D115E02068DE
:10141000806820F00700216888604EE0D5E902135B
:101420006A68206800F0F2FE2068866826F0770679
:1014300046F07706206886603FE0D5E902136A68C7
:10144000206800F0E3FE2068806840F48040216856
:10145000886032E0EA686968206800F0EDFE50219B
:10146000206800F0DFFE28E0EA686968206800F084
:10147000F8FE6021206800F0D5FE1EE0EA68696889
:10148000206800F0D9FE4021206800F0CBFE14E077
:101490000021206800F0C6FE0FE01021206800F057
:1014A000C1FE0AE02021206800F0BCFE05E03021EA
:1014B000206800F0B7FE00E000BF00BF012084F804
:1014C0003D0000BF002084F83C0000BF00BF71E772
:1014D0002DE9F04104460D464FF000080026002794
:1014E00014B90120BDE8F08194F83D0028B900202E
:1014F00084F83C00204600F045F8022084F83D00C6
:101500002068806820F0070021688860211D20681D
:1015100000F034FE2068D0F80880206886692068D2
:10152000076A286840EA080840F203308643A96940
:10153000A86840EA0120064340F60C4086434FF27B
:10154000F0008643E969E86840EA0120064328691B
:101550000001296A40EA0130064327F0220727F0FC
:1015600088076969686840EA011007432068C0F885
:1015700008802068866120680762012084F83D00A9
:101580000020AFE710B586B004460020029003901B
:10159000049005902949206888424CD100BF284812
:1015A000C06940F002002649C8610846C06900F0E1
:1015B0000200019000BF00BF00BF0846806940F0F4
:1015C000040088610846806900F00400019000BFB3
:1015D00000BFC0200290002003900120049002A9C7
:1015E0001848FFF721F8184818490860002048609B
:1015F0000021164881608021C16049000161890095
:10160000416100218161C161FEF778FF08B1FEF7F9
:101610004EFE00BF0D4921630846446200BF00BF73
:101620002062446200BF002211461D20FFF71BFA12
:101630001D20FFF70BFA06B010BD000000040040AB
:101640000010024000080140300002401404002055
:1016500030B504460D4615B1042D0CD105E001222C
:101660000021206800F0C4FD10E001220421206860
:1016700000F0BEFD0AE001220021206800F0B8FD64
:1016800001220421206800F0B3FD00BF00BF2068E4
:10169000006840F0010021680860002030BD7047FC
:1016A00010B5044620680069C0F34000D8B1206836
:1016B000C068C0F34000B0B16FF00200216808615B
:1016C000012020772068806900F0030018B12046CF
:1016D000FFF7E5FF05E0204600F0ADF8204600F0FA
:1016E000ABF80020207720680069C0F38000D8B1F3
:1016F0002068C068C0F38000B0B16FF004002168BA
:101700000861022020772068806900F4407018B1D9
:101710002046FFF7C4FF05E0204600F08CF8204685
:1017200000F08AF80020207720680069C0F3C0002C
:10173000D8B12068C068C0F3C000B0B16FF0080035
:1017400021680861042020772068C06900F0030048
:1017500018B12046FFF7A3FF05E0204600F06BF824
:10176000204600F069F80020207720680069C0F367
:101770000010D8B12068C068C0F30010B0B16FF09D
:10178000100021680861082020772068C06900F4F3
:10179000407018B12046FFF782FF05E0204600F0B8
:1017A0004AF8204600F048F80020207720680069B9
:1017B00000F0010058B12068C06800F0010030B1AD
:1017C0006FF0010021680861204600F037F82068BA
:1017D0000069C0F3C01058B12068C068C0F3C010E1
:1017E00030B16FF08000216808612046FFF720FDCE
:1017F00020680069C0F3801058B12068C068C0F349
:10180000801030B16FF0400021680861204600F080
:101810003FF820680069C0F3401058B12068C068E4
:10182000C0F3401030B16FF02000216808612046FD
:10183000FFF7FFFC10BD70477047000010B504466D
:101840002068B0F1804F02D101F0DEF918E00D49B7
:101850002068884214D10C480068401C0A4908607E
:10186000084600684FF47A71B0FBF1F201FB1200F8
:10187000054908600846006810B90120034908704E
:1018800010BD0000000800400400002001000020FE
:10189000704770472DE9F0470446206805682068C6
:1018A000C668206847694FF00008C14605F00F0878
:1018B000B8F1000F0AD105F0200038B106F0200081
:1018C00020B1204600F069FDBDE8F087B8F1000FB7
:1018D0006DD007F0010018B906F49070002866D0AA
:1018E00005F0010030B106F4807018B1E06B40F0F3
:1018F0000100E06305F0040030B107F0010018B109
:10190000E06B40F00200E06305F0020030B107F048
:10191000010018B1E06B40F00400E06305F008003E
:1019200030B107F0010018B1E06B40F00800E0634F
:10193000E06B68B305F0200028B106F0200010B17C
:10194000204600F02AFD20684069C0F38019E06B52
:1019500000F0080010B9B9F1000F22D0204600F0C5
:10196000F2FC2068406900F04000B0B12068406996
:1019700020F0400021684861606B50B11748616BEE
:101980004863606BFEF794FC10B1606B416B884755
:101990000CE02046FFF77DFF08E02046FFF779FFC7
:1019A00004E02046FFF775FF0020E0638CE705F0B8
:1019B000800030B106F0800018B1204600F024FE0F
:1019C00082E705F0400030B106F0400018B1204633
:1019D00000F0C9FC78E700BF76E700008F2200081E
:1019E00010B504460CB9012010BDA06900B100E09B
:1019F00000BF94F8390028B9002084F83800204648
:101A000000F028F8242084F839002068C06820F409
:101A100000502168C860204600F012FD206800696F
:101A200020F49040216808612068406920F02A0075
:101A3000216848612068C06840F400502168C8608F
:101A40000020E063202084F8390084F83A00002068
:101A5000CAE7000010B586B004460020029003904B
:101A6000049005903849206888426BD100BF374800
:101A7000806940F48040354988610846806900F4F7
:101A80008040019000BF00BF00BF0846806940F061
:101A9000040088610846806900F00400019000BFDE
:101AA00000BF48150290022003900320059002A970
:101AB0002748FEF7B9FD4FF48060029000200390A4
:101AC000049002A92248FEF7AFFD2248224908608F
:101AD000002048600021204881608021C1600021F1
:101AE00001614161202181610021C161FEF706FD94
:101AF00008B1FEF7DCFB00BF17486063446200BF1B
:101B00001448143815490860102048600021134813
:101B100081608021C1600021016141618161C161F9
:101B2000FEF7ECFC08B1FEF7C2FB00BF0B482063D8
:101B3000446200BF002211462520FEF794FF2520B5
:101B4000FEF784FF06B010BD0038014000100240CF
:101B5000000801405800024098040020DC040020E6
:101B600077B581B00446154694F83A00202850D144
:101B7000029800B115B9012004B070BD00BF94F8FF
:101B80003800012801D10220F6E7012084F838004E
:101B900000BF0298A062A5850020E063222084F89F
:101BA0003A001D48616B88621C48616BC8621C4822
:101BB000616B08630020616B486302AE3268236882
:101BC000191D2B46606BFEF7CDFC00BF0020009076
:101BD00020680068009020684068009000BF00BF47
:101BE00000BF002084F8380000BF2068C06840F4BF
:101BF00080702168C8602068406940F00100216859
:101C000048612068406940F0400021684861002038
:101C1000B2E70220B0E70000F322000839230008F1
:101C2000A322000810B5044604492068884204D164
:101C300003480178034801F0A4F810BD00380140C2
:101C40000000002010020020704710B5034693F8F2
:101C50003900202823D101B10AB9012010BD00BFED
:101C600093F83800012801D10220F7E7012083F81A
:101C7000380000BF19629A84DA840020D8632120DA
:101C800083F8390000BF002083F8380000BF1868CF
:101C9000C06840F080001C68E0600020DEE70220A1
:101CA000DCE7000010B5044604492068884204D1EE
:101CB0000022C1140248FEF74DFE10BD003801405D
:101CC0000008014000BFFEE708B500BF12484069A8
:101CD00040F00100104948610846406900F00100E9
:101CE000009000BF00BF002211460D20FEF7BBFE92
:101CF0000D20FEF7ABFE002211460E20FEF7B3FECC
:101D00000E20FEF7A3FE002211460F20FEF7ABFEC9
:101D10000F20FEF79BFE08BD0010024000B585B005
:101D20000020019002900390049000BF3448806925
:101D300040F02000324988610846806900F02000A8
:101D4000009000BF00BF00BF0846806940F004005B
:101D500088610846806900F00400009000BF00BF61
:101D600000BF0846806940F0080088610846806925
:101D700000F00800009000BF00BF002249F60B11E0
:101D80002048FEF7E7FD00224FF63B711E48FEF7A4
:101D9000E1FD49F60B100190012002900020039014
:101DA0000220049001A91748FEF73EFC0420019090
:101DB0000320029001A91348FEF736FC3020019061
:101DC00000200290039001A90E48FEF72DFC4FF66B
:101DD0003B700190012002900020039002200490AB
:101DE00001A90948FEF720FCC020019000200290C4
:101DF000039001A90448FEF717FC05B000BD0000E0
:101E00000010024000080140000C014000B587B0FE
:101E100000200390049005900690019002901548D0
:101E2000154908604720486000211348816040F24E
:101E3000E731C1600021016141618161FFF72BFA47
:101E400008B1FEF734FA4FF48050039003A90A4812
:101E5000FFF7A5FA08B1FEF72AFA002001900290D8
:101E600001A90548FFF7E6F908B1FEF720FA07B027
:101E700000BD0000002C01401403002000B587B015
:101E800000200390049005900690019002904FF07E
:101E90008040134908604720486000211048816055
:101EA0000A21C160002101618161FFF7F4F908B1E5
:101EB000FEF7FDF94FF48050039003A90848FFF79F
:101EC0006EFA08B1FEF7F3F900200190029001A923
:101ED0000348FFF7AFF908B1FEF7E9F907B000BD15
:101EE0005403002000B58BB0242102A8FEF721F98D
:101EF00000200090019019481949086003204860AB
:101F00000021174881604FF6FF71C1600021016117
:101F100081610320029000200390012004900020A2
:101F200005900F20069000200790012008900020C7
:101F300009900F200A9002A90948FFF7C9FA08B1D1
:101F4000FEF7B5F900200090019069460448FFF7BC
:101F500071F908B1FEF7ABF90BB000BD0004004009
:101F60009403002000B587B00020039004900590F2
:101F70000690019002901448144908604720486078
:101F800000211248816040F2E731C1600021016107
:101F90008161FFF780F908B1FEF789F94FF48050AD
:101FA000039003A90948FFF7FAF908B1FEF77FF992
:101FB00000200190029001A90448FFF73BF908B105
:101FC000FEF775F907B000BD00080040D4030020FB
:101FD00010B50B480B4908604FF4E1304860002110
:101FE00008488160C16001610C214161002181616B
:101FF000C161FFF7F5FC08B1FEF759F910BD00000B
:10200000003801405804002000BFFEE77047000080
:1020100002480068C0F30220704700000CED00E0A9
:1020200010B5002807DA0A07140E054A00F00F035E
:102030001B1FD45403E00A07130E024A135410BDA9
:1020400018ED00E000E400E07047000008B5084922
:102050000968C9084FF47A72B1FBF2F1414300916B
:1020600000BF00BF00994A1E00920029F9D108BDA7
:1020700014000020704710B5FEF778FC10BD00B5C5
:102080008FB0282105A8FEF754F814216846FEF702
:1020900050F80120059000040690002007900120D0
:1020A000099002200C90C1030D914FF4E0110E91A4
:1020B00005A8FEF783FE08B1FEF7F9F80F2000909F
:1020C00002200190002002904FF4806003900020D5
:1020D000049002216846FEF719FD08B1FEF7E7F803
:1020E0000FB000BD1148006840F001000F490860C2
:1020F000084640680E4908400C4948600846006898
:102100000C490840094908600846006820F480200E
:1021100008600846406820F4FE0048604FF41F0045
:102120008860C8030449086070470000001002403E
:102130000000FFF8FFFFF6FE08ED00E010B50248D2
:10214000FFF7AEFA10BD00001403002010B50248DE
:10215000FFF7A6FA10BD00005403002010B5024896
:10216000FFF79EFA10BD00009403002010B502484E
:10217000FFF796FA10BD0000D40300200022026889
:10218000184B984208D0B0F1804F05D0164B9842BA
:1021900002D0164B984203D122F070024B681A43CA
:1021A000104B984208D0B0F1804F05D00E4B9842AA
:1021B00002D00E4B984203D122F44072CB681A43EE
:1021C00022F080024B691A4302608B68C3620B687D
:1021D0008362044B984201D10B690363012343617D
:1021E00070470000002C014000040040000800403F
:1021F00030B50023012404FA01F3046A9C4304620D
:10220000046A02FA01F52C43046230BD30B50C4675
:102210000021816821F47F4142EA032525432943B7
:10222000816030BD0A460021816821F0700142F0D2
:10223000070319438160704730B50B4614460021EF
:102240000022026A056A25F001050562816921F014
:10225000F00141EA041122F00A021A43816102628C
:1022600030BD30B50B46144600210022056A25F02A
:10227000100505628169026A21F4704141EA043166
:1022800022F0A00242EA03128161026230BD70B501
:1022900005466C6A0020E085E0842046FFF7F9FAE5
:1022A00070BD70B506460025746A20684069C0F3A9
:1022B000C01594F83900212805D125B10020E0840B
:1022C000204600F060F820684069C0F3801594F85B
:1022D0003A00222805D125B10020E085204600F0F3
:1022E00032F8E06B40F01000E0632046FFF7D1FACF
:1022F00070BD70B505466C6A2868006800F0200063
:10230000B0B90020E0852068C06820F480702168A2
:10231000C8602068406920F0010021684861206899
:10232000406920F0400021684861202084F83A008C
:102330002046FFF777FC70BD70B50446656A2846F5
:10234000FFF782FC70BD0168C96821F490710268D2
:10235000D1600168496921F00101026851612021C1
:1023600080F83A10704710B504462068C06820F025
:1023700040002168C860202084F839002046FFF71B
:1023800091FC002010BD0168C96821F0C0010268FD
:10239000D160202180F83910704770B5044694F858
:1023A0003A0022284AD1A068B0F5805F13D1A56A0F
:1023B000206940B920684068C0F308002880A06AFE
:1023C000801CA06219E020684068C0B22880A06A22
:1023D000401CA06211E0206938B920684068C1B291
:1023E000A26A501CA062117007E02068406800F0EB
:1023F0007F01A26A501CA0621170E08D401E80B265
:10240000E085C8B92068C06820F020002168C86055
:102410002068C06820F480702168C8602068406926
:1024200020F0010021684861202084F83A0020460D
:10243000FFF7F8FB002070BD0020FCE70220FAE760
:102440002DE9F041044600252068006920F4405041
:10245000E1680843216808612169A068084361694F
:10246000084305432068C06841F20C618843284353
:102470002168C8602068406920F44070A169084361
:10248000216848615F49206888425CD1FEF73CFCC6
:1024900000EBC00101EB001061688900B0FBF1F6B0
:1024A000FEF732FC00EBC00101EB0010616889000F
:1024B000B0FBF1F06421B0FBF1F000EBC00101EBE7
:1024C0000010A6EB8000322101EB00106421B0FB6C
:1024D000F1F000F0F006FEF717FC00EBC00101EB95
:1024E000001061688900B0FBF1F06421B0FBF1F0ED
:1024F00006EB0016FEF708FC00EBC00101EB001034
:1025000061688900B0FBF1F7FEF7FEFB00EBC0014C
:1025100001EB001061688900B0FBF1F06421B0FBB1
:10252000F1F000EBC00101EB0010A7EB80003221BD
:1025300001EB00106421B0FBF1F000F00F0030441B
:10254000216888605BE0FEF7CFFB00EBC00101EB88
:10255000001061688900B0FBF1F6FEF7C5FB00EBE7
:10256000C00101EB001061688900B0FBF1F064214B
:10257000B0FBF1F000EBC00101EB0010A6EB800016
:10258000322101EB00106421B0FBF1F000F0F00605
:10259000FEF7AAFB00EBC00101EB001061688900A7
:1025A000B0FBF1F06421B0FBF1F006EB0016FEF792
:1025B0009BFB00EBC00101EB001061688900B0FBE0
:1025C000F1F7FEF791FB00EBC00101EB0010616831
:1025D0008900B0FBF1F06421B0FBF1F000EBC00129
:1025E00001EB0010A7EB8000322101EB0010642109
:1025F000B0FBF1F000F00F00304421688860BDE8C6
:10260000F081000000380140014691F8390021288E
:102610002CD18868B0F5805F0FD10A6A1088C0F3AA
:1026200008000B685860086918B9086A801C0862BD
:1026300009E0086A401C086205E00B6A581C086241
:1026400018780B685860C88C401E80B2C88458B98E
:102650000868C06820F080000B68D8600868C0680F
:1026600040F040000B68D860002070470220FCE773
:1026700010B50248FFF70EF910BD00005804002005
:1026800000BFFEE70FB4084B10B504A902AA0398D7
:1026900000F01BF8044602A9002000F081F8204653
:1026A00010BC5DF814FB0000A127000802E008C878
:1026B000121F08C1002AFAD170477047002001E0BC
:1026C00001C1121F002AFBD170472DE9F84F99462E
:1026D000924688460546002706E025280AD051463E
:1026E0004A4690476D1C7F1C28780028F5D1384653
:1026F000BDE8F88F002315F8011F18462E2915D1C3
:1027000015F8011F04232A290DD06FF02F02297814
:10271000A1F13004092C09D800EB800002EB400045
:1027200008446D1CF3E758F8040B6D1C2A78002A46
:10273000DDD0632A07D0732A0FD0104651464A468F
:1027400090477F1C2AE018F8042B8DF80020002108
:102750008DF801106E46012103E058F8046B4FF02C
:10276000FF315A074FF0000401D409E0641C844291
:102770000BDA8C42FADB325D002AF7D105E0641CEB
:102780008C42FCDB305D0028F9D1274404E016F8C8
:10279000010B51464A469047641EF8D26D1CA3E7D0
:1027A0000A68531C0B601070704710B500F004F8F5
:1027B00000F028FA10BD000010B500245FE004EB23
:1027C000840000EBC4002F4901EBC003002203CBBF
:1027D00000F05AF804EB840000EBC400294901EB37
:1027E000C0000122C168806800F04EF804EB84004C
:1027F00000EBC400234901EBC000012241690069DC
:1028000000F042F804EB840000EBC4001D4901EB2A
:10281000C0000122C169806900F036F804EB840031
:1028200000EBC400174901EBC0000122416A006AB5
:1028300000F02AF804EB840000EBC400114901EB1E
:10284000C0000122C16A806A00F01EF804EB840017
:1028500000EBC4000B4901EBC0000122416B006B8F
:1028600000F012F804EB840000EBC400054901EB12
:10287000C0000122C16B806B00F006F8641C012CC3
:102880009DDB10BD1800002037B51446019A91B2A7
:1028900022460098FEF75EF83EBD072106E00721BC
:1028A00000BF0A1EA1F10103D9B2FAD1021EA0F1A4
:1028B0000100F4D170470000FEF764F8FFF7DFFB7A
:1028C000FFF72CFAFFF700FAFFF70CFBFFF79EFA71
:1028D000FFF748FBFFF7D2FAFFF77AFB444800F016
:1028E00031FA18214348FEF7B3FE4348FEF748FD8E
:1028F0004248FEF745FD012241494248FFF730F9C1
:1029000000224FF400614048FEF724F80122D10272
:102910003D48FEF71FF83DA14948FFF7B3FE484880
:10292000FDF712FC84B2224645493648FFF78DF97F
:102930004FF47A70FDF764FEFFF737FF57E0414828
:10294000007801281FD100203E4908703E480078D9
:10295000012805D13DA23E493948FFF793FE04E026
:102960003CA23B493648FFF78DFE0122D1022648A2
:10297000FDF7F0FF3248FDF7E7FB84B2224630490D
:102980002048FFF762F93448344A12788118184811
:1029900000F0C2F931490978084430490870084606
:1029A000007801281CDB08460078401E2A49085C94
:1029B0000A2815D10020294A1278885428A12648CF
:1029C000FDF7C9FB10B900F073F806E02EA122480C
:1029D000FDF7C1FB08B900F0BFF800201F490870DF
:1029E0001E480078802802DB00201C490870A6E7FA
:1029F000100200209403002054030020D403002080
:102A00000000002058040020000801400D0A7375E2
:102A1000622F30383565326432632D373765642D67
:102A2000343136652D623835322D356638336230B3
:102A30003339326664362D6465766963650D0A0044
:102A40001001002001000020020000206F666600D7
:102A5000CC2D00086F6E00009202002003000020C1
:102A60005645523D312E3026545950453D73756DB3
:102A7000616775616E265041594C4F41443D632F4B
:102A80006F6E240D0A0000005645523D312E30264F
:102A9000545950453D73756D616775616E2650419F
:102AA000594C4F41443D632F6F6666240D0A000068
:102AB00010B51F48007800B910BD00201C490870EF
:102AC0001CA21E491E48FFF7DDFD0122D1021D4850
:102AD000FDF740FF1A48FDF737FB84B2224618493C
:102AE0001948FFF7B2F8002018490860002218487A
:102AF000C1688068FFF7C8FE0FE00022144803C8D1
:102B0000FFF7C2FE0A20FFF7C8FE0122104803C8E3
:102B1000FFF7BAFE0A20FFF7C0FE0C490868FDF770
:102B200031FB04460B49FDF733FBE6D300BFC3E797
:102B3000020000206F6E696E67000000CC2D000857
:102B40001001002000080140580400202404004027
:102B500018000020390EF34410B52048007800B169
:102B600010BD01201D4908701DA21F491F48FFF715
:102B700089FD0122D1021E48FDF7ECFE1B48FDF73E
:102B8000E3FA84B2224619491A48FFF75EF800209A
:102B90001949086001221948C1688068FFF774FE6E
:102BA0000FE00022154803C8FFF76EFE0A20FFF76A
:102BB00074FE0122114803C8FFF766FE0A20FFF7E2
:102BC0006CFE0D49096808B2FDF7D3FA04460C49BA
:102BD000FDF7E8FAE5D300BFC2E7000002000020DD
:102BE0006F6666696E670000CC2D0008100100203A
:102BF0000008014058040020240400401800002070
:102C0000390EF3C47047000010B540213E48FDF76F
:102C100099FE20B13D480078401C3C490870802155
:102C20003948FDF78FFE30B1384890F82000401C3D
:102C3000364981F8200010213548FDF783FE30B178
:102C4000324890F84000401C304981F8400031483B
:102C50000078401C2F49087008460078FA2190FB44
:102C6000F1F201FB12002B49087008460078002899
:102C700049D100BF45E0254901EB40110978234ABD
:102C800002EB40125170214901EB40110978491CB7
:102C90001E4A02EB4012117000211C4A02EB401246
:102CA00011701A4901EB4011497864290FDB17496B
:102CB00001EB40114978C82909DC144901EB4011A6
:102CC0008968491C114A02EB4012916018E00F49D3
:102CD00001EB40114978642909DA0C4901EB4011F4
:102CE000C968491C094A02EB4012D16008E0074953
:102CF00001EB40114968491C044A02EB4012516043
:102D0000401C0328B7DB10BD000C0140200500204B
:102D1000000801400D01002070B504460D46204614
:102D200000F016F808B1002070BD94F88000205C17
:102D3000287094F88000401C00F07F0084F8800028
:102D40000120F1E7002180F8801080F881107047A1
:102D5000014691F8810091F88020904201D1012034
:102D600070470020FCE7014691F8810091F880202F
:102D7000801A00F07F007F2801D1012070470020D9
:102D8000FCE770B504460D462046FFF7ECFF30B176
:102D900094F88000401C00F07F0084F8800094F8D4
:102DA0008100255494F88100401C00F07F0084F8D5
:102DB000810070BD0000000000000000010203045B
:102DC0000607080900000000010203040D0A7075DF
:102DD000622F30383565326432632D373765642DA4
:102DE000343136652D623835322D356638336230F0
:102DF0003339326664362F5645523D312E302654D3
:102E00005950453D73756D616775616E2650415926
:102E10004C4F41443D732F2573240D0A00000000E0
:102E2000402E00080000002010010000AC26000821
:102E3000502F00081001002070080000BC26000878
:102E40000000010000000000000000001000000071
:102E50000100000000A24A04000801400100000037
:102E60000008014000010000000C0140004000008B
:102E7000000C014000080000000C014000100000A0
:102E8000000C014000200000000C01400080000008
:102E9000000C0140000400000300000000000000DE
:102EA000000000000000000000010000140000000D
:102EB00000000000000000000000000014030020DB
:102EC0000000000000000000000000000000000002
:102ED00000000000000000000000000000000000F2
:102EE00000000000000000000000000000000000E2
:102EF000CDCCCC3DCDCC4C3E9A99993E0000003FC4
:102F00000000803F0000C03F000000400000204063
:102F10000000404000006040000080400000904001
:102F20000000A0400000B0400000C0400000D040C1
:102F30000000E0400000F0400000004100000841B7
:102F40000000104100001841000020410000000076
:04000005080000ED02
:00000001FF
