:020000040800F2
:10000000700600200101000855180008A31500081B
:100010005118000821020008C71A0008000000005B
:10002000000000000000000000000000BD180008F3
:10003000350200080000000091180008BF180008F1
:100040001B0100081B0100081B0100081B01000820
:100050001B0100081B0100081B0100081B01000810
:100060001B0100081B0100081B0100081B01000800
:100070001B010008250200081B0100081B010008E5
:100080001B0100081B0100081B0100081B010008E0
:100090001B0100081B0100081B0100081B010008D0
:1000A0001B010008851900081B0100081B0100083E
:1000B0001B01000895190008A51900081B0100087C
:1000C0001B0100081B0100081B0100081B010008A0
:1000D0001B0100081B0100081B0100081B01000890
:1000E0001B0100081B0100081B010008DFF80CD0F1
:1000F00000F084F800480047F51B00087006002057
:100100000648804706480047FEE7FEE7FEE7FEE7B1
:10011000FEE7FEE7FEE7FEE7FEE7FEE72D19000833
:10012000ED000008D2B201E000F8012B491EFBD21D
:1001300070470022F6E710B513460A4604461946F2
:10014000FFF7F0FF204610BDC10F80EAE0700844C1
:10015000CA079623002100F022B8962300221146F8
:1001600000F01DB8002801DBC0F10040002901DBD0
:10017000C1F1004181427047002801DBC0F100401D
:10018000002901DBC1F10041884270470029A8BF66
:100190007047401C490008BF20F00100704710B4B0
:1001A000B0FA80FC00FA0CF050EA010404BF10BC65
:1001B000704749B1CCF1200421FA04F411FA0CF192
:1001C00018BF012121430843A3EB0C01CB1D4FEACB
:1001D00000614FEA102042BF002010BC704700EBC6
:1001E000C35010440029A4BF10BC7047401C4900F4
:1001F00008BF20F0010010BC70470000064C074DFE
:1002000006E0E06840F0010394E8070098471034E6
:10021000AC42F6D3FFF76EFF7C1E00089C1E000860
:1002200000BFFEE710B5024800F006F810BD000060
:10023000CC0100207047704770B50446E06B05683C
:100240002068066894F84010042088402840002860
:1002500046D006F00400002842D02068006800F074
:10026000200028B92068006820F004002168086098
:1002700057492068884201D1042027E054491431AD
:100280002068884201D1402020E05149283120686F
:10029000884201D1001519E04D493C31206888425F
:1002A00002D14FF4804011E0494950312068884222
:1002B00002D14FF4802009E045496431206888422A
:1002C00002D14FF4800001E04FF0806040490839CE
:1002D0004860E06A00287AD02046E16A884776E0E4
:1002E00094F84010022088402840A0B306F0020095
:1002F00088B32068006800F0200040B920680068DA
:1003000020F00A0021680860012084F821003049AB
:100310002068884201D1022028E02D49143120684C
:10032000884201D1202021E02949283120688842D3
:1003300001D140151AE026493C312068884202D19B
:100340004FF4005012E0224950312068884203D116
:100350004FF400300AE017E01D49643120688842FC
:1003600002D14FF4001001E04FF000701849083935
:10037000486000BF002084F8200000BFA06A30B3AE
:100380002046A16A884722E094F84010082088405F
:100390002840E0B106F00800C8B12068006820F0ED
:1003A0000E002168086094F8401001208840E16B3D
:1003B00048600120A06384F8210000BF002084F879
:1003C000200000BF206B10B12046216B884770BD14
:1003D000080002400146002209B901207047164B6F
:1003E0000868C01A1423B0FBF3F0800008641248B8
:1003F0000838C863022081F821000868026843F6C3
:10040000F0708243D1E901031843CB6818430B69AC
:1004100018434B6918438B691843CB69184302434F
:100420000868026000208863012081F82100002014
:1004300081F8200000BFD1E7080002402DE9F8470D
:1004400003460024002000258446002700226EE198
:100450004FF0010808FA02F4D1F8008008EA04001D
:10046000A0427DD1DFF8D0A2D1F80480A8EB0A0920
:10047000D0453AD014DCB8F1030F50D009DCB8F104
:10048000000F31D0B8F1010F1CD0B8F1020F49D1E3
:1004900020E0B8F1110F18D0B8F1120F42D11EE0D0
:1004A000B9F5881F25D006DCB9F5803F20D0B9F515
:1004B000801F37D11AE0B9F5001F18D0B9F5041F15
:1004C00030D117E0D1F80CC02DE0D1F80C8008F144
:1004D000040C28E0D1F80C8008F1080C23E0D1F8D6
:1004E0000C8008F10C0C1EE000BF00BF00BF00BF75
:1004F00000BF00BFD1F80880B8F1000F02D14FF063
:10050000040C0BE0D1F80880B8F1010F03D14FF0D3
:10051000080C1C6102E04FF0080C5C6103E04FF036
:10052000000C00E000BF00BFFF2801D8984601E0A2
:1005300003F104084646FF2802D84FEA820803E088
:10054000A2F108084FEA88084746D6F800804FF025
:100550000F0909FA07F928EA09080CFA07F900E077
:1005600088E048EA0908C6F80080D1F8048008F05D
:100570008058B8F1805F7DD100BFDFF8C081D8F826
:10058000188048F00108DFF8B491C9F81880C8460F
:10059000D8F8188008F00108CDF8008000BF00BF2F
:1005A0004FEAB9384FEA920958F829504FEA827851
:1005B0004FEA18794FF00F0808FA09F825EA0805FC
:1005C000DFF87C81434502D14FF0000816E0DFF8E8
:1005D0007481434502D14FF001080FE0DFF86881D4
:1005E000434502D14FF0020808E0DFF8608143453F
:1005F00002D14FF0030801E04FF004084FEA82797E
:100600004FEA197908FA09F848EA0505DFF8408148
:100610004FEA920948F82950D1F8048008F480384C
:10062000B8F5803F0AD1DFF82C81D8F8008048EA7D
:100630000008DFF82091C9F8008009E0DFF8148194
:10064000D8F8008028EA0008DFF80891C9F800808F
:10065000D1F8048008F40038B8F5003F10D1DFF875
:10066000F48008F10408D8F8008048EA0008DFF8B0
:10067000E49000E05AE009F10409C9F800800DE0B7
:10068000DFF8D08008F10408D8F8008028EA0008D4
:10069000DFF8C09009F10409C9F80080D1F804809E
:1006A00008F48018B8F5801F0ED1DFF8A88008F193
:1006B0000808D8F8008048EA0008DFF8989009F1A7
:1006C0000809C9F800800DE0DFF8888008F1080803
:1006D000D8F8008028EA0008DFF8789009F10809C6
:1006E000C9F80080D1F8048008F40018B8F5001F9C
:1006F0000ED1DFF8608008F10C08D8F8008048EAD5
:100700000008DFF8509009F10C09C9F800800DE0ED
:10071000DFF8408008F10C08D8F8008028EA0008CB
:10072000DFF8309009F10C09C9F80080521C102A3A
:10073000FFF48EAEBDE8F8870000111000100240F3
:1007400000080140000C014000100140001401406D
:1007500008000140000401400AB1016101E00B04FE
:1007600003617047014800687047000004000020E2
:100770000348006803490978084401490860704744
:10078000040000200C00002010B50848006840F06C
:10079000100006490860032000F0A6F8002000F0D1
:1007A00007F800F02BF8002010BD000000200240E8
:1007B00070B504460E4800784FF47A71B1FBF0F042
:1007C0000C490968B1FBF0F5284600F0F3FB08B1CD
:1007D000012070BD102C07D200222146501E00F0CF
:1007E00044F80548046001E00120F2E70020F0E74A
:1007F0000C000020100000200800002008B500BFF9
:100800001148806940F001000F49886108468069FD
:1008100000F00100009000BF00BF00BF0846C069A3
:1008200040F08050C8610846C06900F080500090D8
:1008300000BF00BF00BF0549486820F0E06040F0FD
:100840000070486000BF08BD001002400000014079
:1008500000BF00F01F02012191404209920002F105
:10086000E022C2F8001100BF70472DE9F05F80461A
:100870000D461646002700F0EFFF074639462A4688
:10088000334601F00700C0F1070ABAF1040F02D99C
:100890004FF0040A01E0C0F1070AD14600F1040A52
:1008A000BAF1070F02D24FF0000A01E0A0F1030AEB
:1008B000D4464FF0010A0AFA09FAAAF1010A0AEA33
:1008C000020A0AFA0CFA4FF0010B0BFA0CFBABF11F
:1008D000010B0BEA030B4AEA0B042146404600F0E9
:1008E000C3FFBDE8F09F000000BF00F00702064B09
:1008F00019684FF6FF031940044B0B4343EA0221EA
:10090000014B196000BF70470CED00E00000FA05D4
:1009100070B504460D4600266D48006800F00700DB
:10092000A8420ED26A48006820F0070028436849B0
:1009300008600846006800F00700A84201D00120C6
:1009400070BD207800F0020002281DD1207800F050
:100950000400042805D15F48406840F4E0605D4928
:100960004860207800F00800082805D15948406800
:1009700040F46050574948605648406820F0F00005
:10098000A168084353494860207800F0010000281E
:100990005DD06068012806D14E48006800F4003040
:1009A00090B90120CCE76068022806D14948006868
:1009B00000F0007040B90120C2E74648006800F02E
:1009C000020008B90120BBE74248406820F003005C
:1009D000616808433F494860FFF7C4FE0646606807
:1009E000012810D108E0FFF7BDFE801B41F28831DD
:1009F000884201D90320A3E73648406800F00C0084
:100A00000428F0D123E06068022810D108E0FFF745
:100A1000A9FE801B41F28831884201D903208FE76B
:100A20002C48406800F00C000828F0D10FE008E0E6
:100A3000FFF798FE801B41F28831884201D90320DC
:100A40007EE72448406800F00C000028F0D12048E0
:100A5000006800F00700A8420ED91D48006820F089
:100A6000070028431A4908600846006800F007009C
:100A7000A84201D0012063E7207800F00400042898
:100A800007D11448406820F4E060E1680843114948
:100A90004860207800F00800082808D10D48406818
:100AA00020F46050216940EAC1000A49486000F022
:100AB00017F808494968C1F30311074A515CC84057
:100AC000064908600020FFF773FE002038E70000A9
:100AD0000020024000100240641E000810000020A8
:100AE000F0B585B00FF26C0C9CE8E01001A8A0E80E
:100AF000E0101CA52D680095002100220023002491
:100B00000020194D696801F00C05F5B1042D02D0E3
:100B1000082D19D101E0154819E001ADC1F3834654
:100B2000AC5D01F4803555B10F4D6D68C5F340459E
:100B30001DF805200D4D6543B5FBF2F302E00C4DA9
:100B400004FB05F3184602E000BF084800BF00BFE1
:100B500005B0F0BD02030405060708090A0B0C0DD9
:100B60000E0F1010010200000010024000127A0067
:100B700000093D00F8B504460025207800F001008A
:100B8000002878D0F848406800F00C0004280CD009
:100B9000F548406800F00C00082811D1F248406880
:100BA00000F48030B0F5803F0AD1EF48006800F4CF
:100BB000003000285FD0606800285CD10120F8BDBB
:100BC00000BF6068B0F5803F06D1E748006840F498
:100BD0008030E549086028E0606858B9E24800685C
:100BE00020F48030E04908600846006820F4802046
:100BF00008601AE06068B0F5A02F0BD1DA480068F1
:100C000040F48020D84908600846006840F48030ED
:100C100008600AE0D448006820F48030D2490860B7
:100C20000846006820F48020086000BF606888B132
:100C3000FFF798FD054606E0FFF794FD401B64288A
:100C400001D90320BBE7C848006800F40030002841
:100C5000F2D010E0FFF786FD054606E0FFF782FDC3
:100C6000401B642801D90320A9E7BF48006800F4AD
:100C700000300028F2D1207800F00200022857D17D
:100C8000B948406800F00C0050B1B748406800F027
:100C90000C00082818D1B448406800F4803098B996
:100CA000B148006800F0020020B12069012801D09D
:100CB000012084E7AC48006820F0F800616940EA50
:100CC000C100A949086033E02069E8B10120A749C3
:100CD0000860FFF747FD054606E0FFF743FD401BB0
:100CE000022801D903206AE79F48006800F002004B
:100CF0000028F2D09C48006820F0F800616940EAC2
:100D0000C1009949086013E0002098490860FFF786
:100D100029FD054606E0FFF725FD401B022801D905
:100D200003204CE79048006800F002000028F2D150
:100D3000207800F0080008282DD1A069B8B1012062
:100D40008B490860FFF70EFD054606E0FFF70AFD38
:100D5000401B022801D9032031E78348406A00F094
:100D600002000028F2D0012000F094FD13E00020E2
:100D70007F490860FFF7F6FC054606E0FFF7F2FC46
:100D8000401B022801D9032019E77748406A00F088
:100D900002000028F2D1207800F00400042873D16A
:100DA00000267148C06900F0805070B900BF6E48DD
:100DB000C06940F080506C49C8610846C06900F0C5
:100DC0008050009000BF00BF01266A48006800F410
:100DD0008070B0B96748006840F480706549086069
:100DE000FFF7C0FC054606E0FFF7BCFC401B64288B
:100DF00001D90320E3E65F48006800F48070002812
:100E0000F2D000BFE068012806D15748006A40F0E0
:100E100001005549086227E0E06858B95248006A65
:100E200020F00100504908620846006A20F00400E2
:100E3000086219E0E06805280BD14B48006A40F0D1
:100E40000400494908620846006A40F0010008624F
:100E50000AE04548006A20F001004349086208465C
:100E6000006A20F00400086200BFE068A0B1FFF74C
:100E700079FC054609E0FFF775FC401B41F288311B
:100E8000884202D903209AE622E03748006A00F03F
:100E900002000028EFD012E0FFF764FC054608E0EE
:100EA000FFF760FC401B41F28831884201D90320E2
:100EB00085E62D48006A00F002000028F0D1012EDE
:100EC00005D12948C06920F080502749C86100BF7A
:100ED000E069C8B32448406800F00C00082860D0DE
:100EE000E069022848D1002020490866FFF73AFC53
:100EF000054606E0FFF736FC401B022801D9032017
:100F00005DE61948006800F000700028F2D1206A00
:100F1000B0F5803F07D11448406820F40030A16844
:100F2000084311494860D4E9080108430E4949685B
:100F300021F4741108430C49486001200B490866EC
:100F4000FFF710FC054607E02DE0FFF70BFC401B08
:100F5000022801D9032032E60348006800F000703F
:100F60000028F2D01FE000000010024000004242C2
:100F7000800442420070004000200C490866FFF7E0
:100F8000F1FB054606E0FFF7EDFB401B022801D907
:100F9000032014E60648006800F000700028F2D133
:100FA00001E001200BE6002009E6000000004242BB
:100FB0000010024070B504462546681EB0F1807FDF
:100FC00001D301200FE0681E4FF0E02148610F219E
:100FD0004FF0FF3000F048FC00204FF0E021886126
:100FE00007200861002070BD70477047024600BFAF
:100FF00092F83C00012801D102207047012082F8BC
:101000003C0000BF022082F83D001068406820F0DC
:10101000700013685860106840680B6818431368C4
:1010200058601068806820F080001368986010682D
:1010300080684B68184313689860012082F83D006F
:1010400000BF002082F83C0000BF00BFD5E710B50C
:1010500004460CB9012010BD94F83D0028B90020C9
:1010600084F83C00204600F00DF8022084F83D0092
:10107000211D206800F09EFC012084F83D00002026
:10108000E9E7000038B504461A492068884216D1BD
:1010900000BF1948806940F400601749886108461C
:1010A000806900F40060009000BF00BF002211467C
:1010B0001920FFF7DAFB1920FFF7CAFB19E00F49E7
:1010C0002068884215D100BF0B48C06940F0040079
:1010D0000949C8610846C06900F00400009000BFDB
:1010E00000BF002211461E20FFF7BFFB1E20FFF7A6
:1010F000AFFB38BD002C014000100240000800404A
:101100002DE9F04104460D46002600BF94F83C004E
:10111000012802D10220BDE8F081012084F83C00C2
:1011200000BF022084F83D002068866826F077061C
:1011300026F47F4620688660286850283BD00CDC67
:10114000202860D004DC002853D0102865D155E059
:1011500030285DD0402860D141E0602835D070282B
:101160000DD0B0F5805F03D0B0F5005F55D115E02C
:101170002068806820F00700216888604EE0D5E98B
:1011800002136A68206800F05DFC2068866826F01B
:10119000770646F07706206886603FE0D5E90213BF
:1011A0006A68206800F04EFC2068806840F4804047
:1011B0002168886032E0EA686968206800F058FCBD
:1011C0005021206800F04AFC28E0EA68696820683D
:1011D00000F063FC6021206800F040FC1EE0EA683B
:1011E0006968206800F044FC4021206800F036FC6B
:1011F00014E00021206800F031FC0FE0102120688D
:1012000000F02CFC0AE02021206800F027FC05E01B
:101210003021206800F022FC00E000BF00BF012068
:1012200084F83D0000BF002084F83C0000BF00BFF0
:1012300071E72DE9F04104460D464FF00008002605
:10124000002714B90120BDE8F08194F83D0028B9C9
:10125000002084F83C00204600F046F8022084F884
:101260003D002068806820F0070021688860211D0B
:10127000206800F09FFB2068D0F80880206886690D
:101280002068076A286840EA080840F2033086436D
:10129000A969A86840EA0120064340F60C4086434D
:1012A0004FF2F0008643E969E86840EA012006430E
:1012B00028690001296A40EA0130064327F0220725
:1012C00027F088076969686840EA011007432068C9
:1012D000C0F808802068866120680762012084F8D1
:1012E0003D000020AFE7000010B586B004460020A6
:1012F00002900390049005902949206888424CD1BF
:1013000000BF2848C06940F002002649C86108466D
:10131000C06900F00200019000BF00BF00BF084696
:10132000806940F0040088610846806900F004008C
:10133000019000BF00BFC020029000200390012058
:10134000049002A91848FFF779F81848184908606E
:10135000002048600021164881608021C16049005A
:1013600001618900416100218161C161FFF732F8AB
:1013700008B1FEF760FF00BF0D49216308464462D3
:1013800000BF00BF2062446200BF002211461D2042
:10139000FFF76BFA1D20FFF75BFA06B010BD0000E7
:1013A00000040040001002400008014030000240EC
:1013B000CC01002030B504460D4615B1042D0CD1EA
:1013C00005E001220021206800F02EFB10E0012240
:1013D0000421206800F028FB0AE001220021206897
:1013E00000F022FB01220421206800F01DFB00BF59
:1013F00000BF2068006840F00100216808600020FC
:1014000030BD704710B5044620680069C0F3400045
:10141000D8B12068C068C0F34000B0B16FF00200DE
:1014200021680861012020772068806900F00300AE
:1014300018B12046FFF7E5FF05E0204600F0ADF8C3
:10144000204600F0ABF80020207720680069C0F348
:101450008000D8B12068C068C0F38000B0B16FF0E0
:10146000040021680861022020772068806900F468
:10147000407018B12046FFF7C4FF05E0204600F099
:101480008CF8204600F08AF8002020772068006958
:10149000C0F3C000D8B12068C068C0F3C000B0B1CC
:1014A0006FF0080021680861042020772068C06977
:1014B00000F0030018B12046FFF7A3FF05E0204627
:1014C00000F06BF8204600F069F8002020772068D3
:1014D0000069C0F30010D8B12068C068C0F30010E4
:1014E000B0B16FF0100021680861082020772068F3
:1014F000C06900F4407018B12046FFF782FF05E094
:10150000204600F04AF8204600F048F800202077F6
:101510002068006900F0010058B12068C06800F040
:10152000010030B16FF0010021680861204600F031
:1015300036F820680069C0F3C01058B12068C06850
:10154000C0F3C01030B16FF0800021680861204600
:10155000FFF74AFD20680069C0F3801058B1206889
:10156000C068C0F3801030B16FF04000216808619E
:10157000204600F015F820680069C0F3401058B10B
:101580002068C068C0F3401030B16FF020002168BF
:1015900008612046FFF729FD10BD7047704770476E
:1015A000704700BFFEE7000008B500BF0A48406969
:1015B00040F00100084948610846406900F0010018
:1015C000009000BF00BF002211460D20FFF74DF92B
:1015D0000D20FFF73DF908BD0010024000B585B0B1
:1015E0000020019002900390049000BF3E48806963
:1015F00040F020003C4988610846806900F02000E6
:10160000009000BF00BF00BF0846806940F00400A2
:1016100088610846806900F00400009000BF00BFA8
:1016200000BF0846806940F008008861084680696C
:1016300000F00800009000BF00BF002249F60B1127
:101640002A48FFF789F800224FF63B712848FFF738
:1016500083F849F60B1001900120029000200390BE
:101660000220049001A92148FEF7E8FE0420019021
:101670000320029001A91D48FEF7E0FE30200190F2
:1016800000200290039001A91848FEF7D7FE4FF6FC
:101690003B700190012002900020039002200490F2
:1016A00001A91348FEF7CAFE4FF400700190022012
:1016B00002900320049001A90C48FEF7BFFE4FF4EE
:1016C0008060019000200290039001A90748FEF776
:1016D000B5FEC020019000200290039001A90448AB
:1016E000FEF7ACFE05B000BD00100240000801404E
:1016F000000C014000B587B00020039004900590D5
:1017000006900190029015481549086047204860EE
:1017100000211348816040F2E731C160002101617E
:1017200041618161FFF793FC08B1FEF784FD4FF43E
:101730008050039003A90A48FFF7E2FC08B1FEF7C6
:101740007AFD00200190029001A90548FFF74EFCA8
:1017500008B1FEF770FD07B000BD0000002C01408D
:101760000C01002000B58BB0242102A8FEF7E1FC9B
:101770000020009001901948194908600320486032
:101780000021174881604FF6FF71C160002101619F
:10179000816103200290002003900120049000202A
:1017A00005900F200690002007900120089000204F
:1017B00009900F200A9002A90948FFF73AFD08B1E5
:1017C000FEF739FD00200090019069460448FFF7BC
:1017D0000DFC08B1FEF72FFD0BB000BD000400406A
:1017E0004C01002000B587B00020039004900590C4
:1017F0000690019002901448144908604720486000
:1018000000211248816040F2E731C160002101618E
:101810008161FFF71CFC08B1FEF70DFD4FF480500D
:10182000039003A90948FFF76BFC08B1FEF703FD1D
:1018300000200190029001A90448FFF7D7FB08B1EE
:10184000FEF7F9FC07B000BD000800408C01002045
:1018500000BFFEE77047000002480068C0F30220A6
:10186000704700000CED00E010B5002807DA0A0709
:10187000140E054A00F00F031B1FD45403E00A079F
:10188000130E024A135410BD18ED00E000E400E00E
:101890007047000008B508490968C9084FF47A7212
:1018A000B1FBF2F14143009100BF00BF00994A1E15
:1018B00000920029F9D108BD10000020704710B532
:1018C000FEF756FF10BD00B58FB0282105A8FEF722
:1018D00030FC14216846FEF72CFC01200590000422
:1018E0000690002007900120099002200C90C1036F
:1018F0000D914FF4E0110E9105A8FFF73BF908B1E7
:10190000FEF799FC0F200090022001900020029029
:101910004FF4806003900020049002216846FEF797
:10192000F7FF08B1FEF787FC0FB000BD1148006853
:1019300040F001000F490860084640680E49084021
:101940000C494860084600680C490840094908608D
:101950000846006820F4802008600846406820F4AB
:10196000FE0048604FF41F008860C8030449086007
:1019700070470000001002400000FFF8FFFFF6FE75
:1019800008ED00E010B50248FFF73CFD10BD000077
:101990000C01002010B50248FFF734FD10BD000017
:1019A0004C01002010B50248FFF72CFD10BD0000CF
:1019B0008C01002000220268184B984208D0B0F138
:1019C000804F05D0164B984202D0164B984203D157
:1019D00022F070024B681A43104B984208D0B0F1C5
:1019E000804F05D00E4B984202D00E4B984203D147
:1019F00022F44072CB681A4322F080024B691A43EA
:101A000002608B68C3620B688362044B984201D109
:101A10000B6903630123436170470000002C014000
:101A2000000400400008004030B50023012404FAFF
:101A300001F3046A9C430462046A02FA01F52C4330
:101A4000046230BD30B50C460021816821F47F412D
:101A500042EA032525432943816030BD0A4600211F
:101A6000816821F0700142F00703194381607047DB
:101A700030B50B46144600210022026A056A25F0A3
:101A800001050562816921F0F00141EA041122F0AB
:101A90000A021A438161026230BD30B50B4614461A
:101AA00000210022056A25F0100505628169026A9D
:101AB00021F4704141EA043122F0A00242EA03120B
:101AC0008161026230BD00BFFEE702E008C8121F5C
:101AD00008C1002AFAD170477047002001E001C117
:101AE000121F002AFBD1704710B500F003F800F078
:101AF00007F910BD10B500245FE004EB840000EB93
:101B0000C4002F4901EBC003002203CB00F05AF8B8
:101B100004EB840000EBC400294901EBC000012262
:101B2000C168806800F04EF804EB840000EBC4004C
:101B3000234901EBC00001224169006900F042F82D
:101B400004EB840000EBC4001D4901EBC00001223E
:101B5000C169806900F036F804EB840000EBC40032
:101B6000174901EBC0000122416A006A00F02AF81F
:101B700004EB840000EBC400114901EBC00001221A
:101B8000C16A806A00F01EF804EB840000EBC40018
:101B90000B4901EBC0000122416B006B00F012F811
:101BA00004EB840000EBC400054901EBC0000122F6
:101BB000C16B806B00F006F8641C012C9DDB10BD2E
:101BC0001400002037B51446019A91B222460098BD
:101BD000FEF7C2FD3EBD072106E0072100BF0A1E39
:101BE000A1F10103D9B2FAD1021EA0F10100F4D192
:101BF00070470000FEF7C8FDFFF765FEFFF7EEFC3B
:101C0000FFF7D2FCFFF7AEFDFFF774FDFFF7EAFD2B
:101C100018210448FFF7CEFBFFF766FF01E000F054
:101C200071F8FCE74C0100207047000010B5154822
:101C3000007800B910BD00201249087012490860F0
:101C400000221248C1688068FFF7BCFF0FE0002245
:101C50000E4803C8FFF7B6FF0A20FFF7BCFF0122BA
:101C60000A4803C8FFF7AEFF0A20FFF7B4FF064992
:101C70000868FEF772FA04460549FEF773FAE6D3E0
:101C800000BFD7E70000002024040040140000201B
:101C9000390EF34410B51648007800B110BD01208C
:101CA0001349087000201349086001221248C168D6
:101CB0008068FFF787FF0FE000220F4803C8FFF797
:101CC00081FF0A20FFF787FF01220B4803C8FFF7B7
:101CD00079FF0A20FFF77FFF0649096808B2FEF77F
:101CE00033FA04460549FEF747FAE5D300BFD5E7C6
:101CF000000000202404004014000020390EF3C42A
:101D00007047000010B500202DE0544901EB401150
:101D1000C968524A02EB40129269914204D00321F1
:101D20004E4A02EB401211774C4901EB40114968D1
:101D30004A4A02EB40121269914204D00121474AFB
:101D400002EB40121177454901EB40118968434A83
:101D500002EB40125269914204D002213F4A02EB49
:101D600040121177401C0328CFDB002018E03B49CC
:101D700001EB4011C968394A02EB401291613749C1
:101D800001EB40114968354A02EB401211613349B9
:101D900001EB40118968314A02EB40125161401C4D
:101DA0000328E4DB2D4890F83C00012806D12B489D
:101DB00090F83D00012801D0FFF738FF274890F840
:101DC0003C1080F83D1090F85C00012807D12348B2
:101DD00090F85D00012802D0FFF75CFF04E01F4887
:101DE00090F85C1080F85D101C4890F85C1080F84A
:101DF0005D10007F01280AD11848407F012806D0D5
:101E00001748007820B30020FFF70EFF20E01348AA
:101E1000007F02280ED11148407F02280AD01048C6
:101E2000007818B10120FFF7FFFE11E001200C49F6
:101E300008700DE00948007F032809D10748407F5A
:101E4000032805D00648007810B10220FFF7ECFE09
:101E50000248007F0149487710BD000010020020B1
:101E6000A4000020000000000000000001020304A4
:101E70000607080900000000010203049C1E000878
:101E8000000000200C010000CA1A0008A81F00086A
:101E90000C01002064050000DA1A000801000000AF
:101EA00000000000100000000100000000A24A0431
:101EB000000801400100000000080140000100008E
:101EC000000C014000400000000C01400008000030
:101ED000000C014000100000000C01400020000038
:101EE000000C014000800000000C014000040000D4
:101EF00003000000000000000000000000000000DF
:101F000000010000140000000000000000000000BC
:101F1000000000000C010020000000000000000094
:101F200000000000000000000000000000000000B1
:101F300000000000000000000000000000000000A1
:101F40000000000000000000CDCCCC3DCDCC4C3ECC
:101F50009A99993E0000003F0000803F0000C03F7A
:101F600000000040000020400000404000006040B1
:101F700000008040000090400000A0400000B04001
:101F80000000C0400000D0400000E0400000F040F1
:101F9000000000410000084100001041000018410D
:081FA0000000204100000000D8
:04000005080000ED02
:00000001FF
